:100000000C942A000C9434000C9434000C943400AA
:100010000C9434000C9434000C9434000C94340090
:100020000C9434000C9434000C9434000C94340080
:100030000C9434000C9434000C9434000C94340070
:100040000C9434000C9434000C9434000C94340060
:100050000C94340011241FBECFE5D8E0DEBFCDBF25
:100060000E945B000C9467000C94000081309105A5
:1000700029F483E090E00E944D000895029721F456
:1000800082E090E00E944D0008950E9460000E946E
:10009000630090E00E9436000895CF93C82F81B38B
:1000A0004C2F60E00E945E0082B341E06C2F0E9402
:1000B0005F00CF9108950E944500FDCF08950895F7
:1000C000BE9A6E9A0895779BFECF8FB10895F894EB
:0200D000FFCF60
:00000001FF
