S01700004763634170706C69636174696F6E312E737265635B
S11300000C942A000C9434000C9434000C943400A6
S11300100C9434000C9434000C9434000C9434008C
S11300200C9434000C9434000C9434000C9434007C
S11300300C9434000C9434000C9434000C9434006C
S11300400C9434000C9434000C9434000C9434005C
S11300500C94340011241FBECFE5D8E0DEBFCDBF21
S11300600E944B000C9442010C94000060E875E27D
S113007080E090E00E945B000E949C0090E0089564
S1130080CF930E943600C82F0E944E008C2F0E94EE
S11300905500CF9108950E944000FDCF87B3806B37
S11300A087BB8DB180658DB908958FB9C498779B4E
S11300B0FECFC49A0895AF92BF92CF92DF92EF928F
S11300C0FF920F931F93CF93DF93DC01CB01282F73
S11300D0392F4A2F5B2F60E070E080E090E004E06D
S11300E00E94FF00A22EB32EC42ED52EE62EF72E8C
S11300F0082F192F20E034E244EF50E060E070E074
S113010080E090E00E94A200AFEF0E943601E22F4F
S113011008E00E941A0120BDE9B988E18AB986E89D
S113012080BDDF91CF911F910F91FF90EF90DF90F1
S1130130CF90BF90AF9008955F9BFECF8CB1089590
S1130140689401C0E8948F929F92CF93DF930E94AA
S1130150AE00DF91CF919F908F90089588249924C9
S1130160F401E401B0E49F93AA279A158B049C043C
S1130170ED05FE05CF05D007A10798F4AD2FDC2FC0
S1130180CF2FFE2FE92D982C892E982F872F762F8D
S1130190652F542F432F322F2227B85031F7BF91A8
S11301A027C01B2EBF91BB27220F331F441F551F8F
S11301B0661F771F881F991F881C991CEE1FFF1F3D
S11301C0CC1FDD1FAA1FBB1F8A149B04EC05FD0571
S11301D0CE05DF05A007B10748F08A189B08EC0993
S11301E0FD09CE09DF09A00BB10B21601A94E1F6D9
S11301F02EF49401AF01BE01CD01000C08950F93BC
S1130200083090F0982F872F762F652F542F432F87
S1130210322F22270850F4CF220F331F441F551FBB
S1130220661F771F881F991F0A95B2F70F910895CB
S113023097FB10F8169400080F93083098F00850B4
S1130240232F342F452F562F672F782F892F902D4A
S1130250F4CF059497958795779567955795479526
S1130260379527950A95AAF70F9108950024A7FDBD
S113027000942A0F301D401D501D601D701D801DEF
S10B0280901D0895F894FFCFCE
S9030000FC
